:1000000067ED00F06DED00F00401C06BC293C2918A
:10001000CEB704EF00F00DEF00F0C06BC291C283C9
:10002000020EC06F7AED00F0CEA659EF00F0C28349
:10003000C291080EC06F7AED00F0CEA659EF00F025
:10004000C283C291200EC06F7AED00F0CEA659EFA8
:1000500000F0C283C291800EC06F7AED00F0CEA690
:1000600059EF00F0C06BC293C281010EC06F8BEDDF
:1000700000F0CEA660EF00F0C293C281040EC06F04
:100080008BED00F0CEA660EF00F0C293C281100E9F
:10009000C06F8BED00F0CEA660EF00F0C293C2817E
:1000A000400EC06F8BED00F0CEA660EF00F00DEFBC
:1000B00000F08BED00F0CEB659EF00F00DEF00F040
:1000C0008BED00F0CEB659EF00F032EF00F00001FA
:1000D000600EAD6F020EB16F12000401C86B106BA1
:1000E000CA93CA91209320910401CE6B006BC687FE
:1000F00001871200020E026EFA0E016EF90E006EFA
:100100000000002E80EF00F0012E7EEF00F0022EA6
:100110007CEF00F01200FA0E016EF90E006E000086
:0E012000002E8FEF00F0012E8DEF00F0120088
:020000040001F9
:04FFFC0000EF00F022
:020000040030CA
:10000000EC0D27C79FFFFFFFFFFFFFFFFFFFFFFF75
:10001000FFFFFFFFFFFFFFFFFFFFFFFFFFFFFFFFF0
:03002000FFFFFFE0
:00000001FF
