:100000008AEC00F090EC00F0CEB73AEF00F0D16A45
:10001000D186EFECFFF0CEB63AEF00F0D16AD18096
:10002000D182EFECFFF0CEB63AEF00F0D16AD18288
:10003000D184D18CEFECFFF0CEB63AEF00F0D16A6C
:10004000D180D18AEFECFFF0CEB63AEF00F0D16A62
:10005000D182D184EFECFFF0CEB63AEF00F0D16A56
:10006000D182D184D186EFECFFF0CEB63AEF00F02A
:1000700007EF00F0D16AD18CEFECFFF0CEA607EFCE
:1000800000F0D168D192D194EFECFFF0CEA607EF4B
:1000900000F0D16AD184D18AEFECFFF0CEA607EF51
:1000A00000F0D16AD188D18AEFECFFF0CEA607EF3D
:1000B00000F0D16AD180D186D188EFECFFF0CEA6D6
:1000C00007EF00F0D16AD182D188EFECFFF0CEA625
:1000D00007EF00F0D16AD182EFECFFF0CEA607EF78
:1000E00000F0D168D190D192D194EFECFFF0CEA680
:1000F00007EF00F0D16AEFECFFF0CEA607EF00F0BB
:10010000D16AD186D188EFECFFF0CEA607EF00F0E0
:100110003AEF00F00001600EAD6F020EB16F1200F9
:100120000401BE6B006BC68701870401D169186B9F
:04013000C96B120085
:020000040001F9
:10FFA00000EF00F0FA0E016EF90E006E0000002E58
:10FFB000D6EFFFF0012ED4EFFFF01200020E026E1A
:10FFC000FA0E016EF90E006E0000002EE4EFFFF055
:10FFD000012EE2EFFFF0022EE0EFFFF01200040E20
:10FFE000026EFA0E016EF90E006E0000002EF5EFA3
:10FFF000FFF0012EF3EFFFF0022EF1EFFFF0120001
:020000040030CA
:10000000EC0D27C79FFFFFFFFFFFFFFFFFFFFFFF75
:10001000FFFFFFFFFFFFFFFFFFFFFFFFFFFFFFFFF0
:03002000FFFFFFE0
:00000001FF
