:1000000033ED00F039ED00F055ED00F05FED00F05C
:100010000AEF00F0C37687ED00F0C37687ED00F0BD
:100020000AEF00F0C3860401000EFB6F000EFA6FAA
:10003000034470EC00F0C06E7BED00F0052E26EF5F
:1000400000F0062E2DEF00F098EF00F0032A12EFDB
:1000500000F0050E066E000E036E0A0E056E000E11
:10006000036E12EF00F00001600EAD6F020EB16F73
:1000700012000401D36BC387C385286BCB97CB9544
:100080000401CE6B006BC68701870401CF6B086B40
:10009000C78909890401D36B286BCB8509850401C5
:1000A000D06BC06B106BC86B12000201030E3E6F69
:1000B00002010C0E3F6F02012A0E406F1200D68A19
:1000C0000301639168816C81D690AF909F80D69236
:1000D000B490A480D694B890A880D68ED68C120006
:1000E000F926810C420C240C180C000C180C240C62
:1000F000420C810C000CFA0E016EF90E006E00002D
:10010000002E7FEF00F0012E7DEF00F01200020EB6
:10011000026EFA0E016EF90E006E0000002E8DEFD9
:1001200000F0012E8BEF00F0022E89EF00F012009C
:020000040001F9
:10FFEA0000EF00F0B8A0100098EF00F0AFA00000FA
:06FFFA00AF9029EF00F0BA
:020000040030CA
:10000000EC0D27C79FFFFFFFFFFFFFFFFFFFFFFF75
:10001000FFFFFFFFFFFFFFFFFFFFFFFFFFFFFFFFF0
:03002000FFFFFFE0
:00000001FF
